{"abi":[{"type":"function","name":"filterEven","inputs":[{"name":"array","type":"uint256[]","internalType":"uint256[]"}],"outputs":[{"name":"","type":"uint256[]","internalType":"uint256[]"}],"stateMutability":"pure"}],"bytecode":{"object":"0x6080604052348015600e575f5ffd5b506102c18061001c5f395ff3fe608060405234801561000f575f5ffd5b5060043610610029575f3560e01c80632a3a8d581461002d575b5f5ffd5b61004061003b366004610178565b610056565b60405161004d91906101e9565b60405180910390f35b60605f805b838110156100a457600285858381811061007757610077610220565b905060200201356100889190610234565b5f0361009c578161009881610253565b9250505b60010161005b565b505f8167ffffffffffffffff8111156100bf576100bf610277565b6040519080825280602002602001820160405280156100e8578160200160208202803683370190505b5090505f805b8581101561016d57600287878381811061010a5761010a610220565b9050602002013561011b9190610234565b5f036101655786868281811061013357610133610220565b9050602002013583838151811061014c5761014c610220565b60209081029190910101528161016181610253565b9250505b6001016100ee565b509095945050505050565b5f5f60208385031215610189575f5ffd5b823567ffffffffffffffff81111561019f575f5ffd5b8301601f810185136101af575f5ffd5b803567ffffffffffffffff8111156101c5575f5ffd5b8560208260051b84010111156101d9575f5ffd5b6020919091019590945092505050565b602080825282518282018190525f918401906040840190835b8181101561016d578351835260209384019390920191600101610202565b634e487b7160e01b5f52603260045260245ffd5b5f8261024e57634e487b7160e01b5f52601260045260245ffd5b500690565b5f6001820161027057634e487b7160e01b5f52601160045260245ffd5b5060010190565b634e487b7160e01b5f52604160045260245ffdfea264697066735822122004f7b56af3c85df58bffc1e21539edda92c913341fa53da89da1552a0d3ff18264736f6c634300081c0033","linkReferences":{}},"methodIdentifiers":{"filterEven(uint256[])":"2a3a8d58"},"id":25}